{
  "contractName": "SOBP",
  "abi": [
    {
      "constant": true,
      "inputs": [],
      "name": "taskPrice",
      "outputs": [
        {
          "name": "",
          "type": "uint64"
        }
      ],
      "payable": false,
      "stateMutability": "view",
      "type": "function"
    },
    {
      "constant": true,
      "inputs": [],
      "name": "random",
      "outputs": [
        {
          "name": "",
          "type": "uint256"
        }
      ],
      "payable": false,
      "stateMutability": "view",
      "type": "function"
    },
    {
      "constant": true,
      "inputs": [],
      "name": "owner",
      "outputs": [
        {
          "name": "",
          "type": "address"
        }
      ],
      "payable": false,
      "stateMutability": "view",
      "type": "function"
    },
    {
      "constant": true,
      "inputs": [
        {
          "name": "",
          "type": "uint256"
        }
      ],
      "name": "taskTable",
      "outputs": [
        {
          "name": "requester",
          "type": "address"
        },
        {
          "name": "G1",
          "type": "uint256"
        },
        {
          "name": "H1",
          "type": "uint256"
        },
        {
          "name": "BP1",
          "type": "uint256"
        },
        {
          "name": "G2",
          "type": "uint256"
        },
        {
          "name": "H2",
          "type": "uint256"
        },
        {
          "name": "BP2",
          "type": "uint256"
        },
        {
          "name": "G3",
          "type": "uint256"
        },
        {
          "name": "H3",
          "type": "uint256"
        },
        {
          "name": "BP3",
          "type": "uint256"
        },
        {
          "name": "state",
          "type": "bool"
        }
      ],
      "payable": false,
      "stateMutability": "view",
      "type": "function"
    },
    {
      "constant": true,
      "inputs": [
        {
          "name": "",
          "type": "uint256"
        }
      ],
      "name": "ranBP",
      "outputs": [
        {
          "name": "G",
          "type": "uint256"
        },
        {
          "name": "H",
          "type": "uint256"
        },
        {
          "name": "BP",
          "type": "uint256"
        }
      ],
      "payable": false,
      "stateMutability": "view",
      "type": "function"
    },
    {
      "inputs": [],
      "payable": false,
      "stateMutability": "nonpayable",
      "type": "constructor"
    },
    {
      "payable": true,
      "stateMutability": "payable",
      "type": "fallback"
    },
    {
      "anonymous": false,
      "inputs": [
        {
          "indexed": true,
          "name": "requester",
          "type": "address"
        }
      ],
      "name": "_uploadTask",
      "type": "event"
    },
    {
      "anonymous": false,
      "inputs": [
        {
          "indexed": true,
          "name": "requester",
          "type": "address"
        }
      ],
      "name": "_updateRan",
      "type": "event"
    },
    {
      "anonymous": false,
      "inputs": [
        {
          "indexed": true,
          "name": "requester",
          "type": "address"
        }
      ],
      "name": "_executeTask",
      "type": "event"
    },
    {
      "anonymous": false,
      "inputs": [
        {
          "indexed": true,
          "name": "requester",
          "type": "address"
        }
      ],
      "name": "_getTask",
      "type": "event"
    },
    {
      "constant": false,
      "inputs": [
        {
          "name": "G",
          "type": "uint256"
        },
        {
          "name": "H",
          "type": "uint256"
        },
        {
          "name": "BP",
          "type": "uint256"
        }
      ],
      "name": "updateRan",
      "outputs": [],
      "payable": false,
      "stateMutability": "nonpayable",
      "type": "function"
    },
    {
      "constant": false,
      "inputs": [
        {
          "name": "requester",
          "type": "address"
        },
        {
          "name": "G1",
          "type": "uint256"
        },
        {
          "name": "H1",
          "type": "uint256"
        },
        {
          "name": "G2",
          "type": "uint256"
        },
        {
          "name": "H2",
          "type": "uint256"
        }
      ],
      "name": "uploadTask",
      "outputs": [
        {
          "name": "",
          "type": "bool"
        }
      ],
      "payable": true,
      "stateMutability": "payable",
      "type": "function"
    },
    {
      "constant": true,
      "inputs": [],
      "name": "getTask",
      "outputs": [
        {
          "name": "requester",
          "type": "address"
        },
        {
          "name": "G1",
          "type": "uint256"
        },
        {
          "name": "H1",
          "type": "uint256"
        },
        {
          "name": "G2",
          "type": "uint256"
        },
        {
          "name": "H2",
          "type": "uint256"
        },
        {
          "name": "G3",
          "type": "uint256"
        },
        {
          "name": "H3",
          "type": "uint256"
        }
      ],
      "payable": false,
      "stateMutability": "view",
      "type": "function"
    },
    {
      "constant": false,
      "inputs": [
        {
          "name": "requester",
          "type": "address"
        },
        {
          "name": "BP1",
          "type": "uint256"
        },
        {
          "name": "BP2",
          "type": "uint256"
        },
        {
          "name": "BP3",
          "type": "uint256"
        }
      ],
      "name": "executeTask",
      "outputs": [
        {
          "name": "",
          "type": "bool"
        }
      ],
      "payable": false,
      "stateMutability": "nonpayable",
      "type": "function"
    },
    {
      "constant": true,
      "inputs": [],
      "name": "getTaskLength",
      "outputs": [
        {
          "name": "",
          "type": "uint256"
        }
      ],
      "payable": false,
      "stateMutability": "view",
      "type": "function"
    },
    {
      "constant": true,
      "inputs": [],
      "name": "getRanLength",
      "outputs": [
        {
          "name": "",
          "type": "uint256"
        }
      ],
      "payable": false,
      "stateMutability": "view",
      "type": "function"
    },
    {
      "constant": true,
      "inputs": [],
      "name": "getRandom",
      "outputs": [
        {
          "name": "",
          "type": "uint256"
        }
      ],
      "payable": false,
      "stateMutability": "view",
      "type": "function"
    }
  ],
  "bytecode": "0x60606040526611c37937e08000600160006101000a81548167ffffffffffffffff021916908367ffffffffffffffff160217905550341561003f57600080fd5b33600160086101000a81548173ffffffffffffffffffffffffffffffffffffffff021916908373ffffffffffffffffffffffffffffffffffffffff1602179055506111008061008f6000396000f3006060604052600436106100ba576000357c0100000000000000000000000000000000000000000000000000000000900463ffffffff1680631ef0fee5146100bf57806333e0339e1461012b5780633f1e47111461016057806342bdfb64146101ca5780635ec01e4d146102075780635f4c36bb146102305780638da5cb5b1461025957806392414bc8146102ae578063a31662d21461035b578063aacc5a17146103da578063bb61174514610403578063e78617a314610448575b600080fd5b34156100ca57600080fd5b610111600480803573ffffffffffffffffffffffffffffffffffffffff16906020019091908035906020019091908035906020019091908035906020019091905050610471565b604051808215151515815260200191505060405180910390f35b341561013657600080fd5b61015e6004808035906020019091908035906020019091908035906020019091905050610707565b005b6101b0600480803573ffffffffffffffffffffffffffffffffffffffff16906020019091908035906020019091908035906020019091908035906020019091908035906020019091905050610815565b604051808215151515815260200191505060405180910390f35b34156101d557600080fd5b6101dd610a92565b604051808267ffffffffffffffff1667ffffffffffffffff16815260200191505060405180910390f35b341561021257600080fd5b61021a610aac565b6040518082815260200191505060405180910390f35b341561023b57600080fd5b610243610ab2565b6040518082815260200191505060405180910390f35b341561026457600080fd5b61026c610abf565b604051808273ffffffffffffffffffffffffffffffffffffffff1673ffffffffffffffffffffffffffffffffffffffff16815260200191505060405180910390f35b34156102b957600080fd5b6102cf6004808035906020019091905050610ae5565b604051808c73ffffffffffffffffffffffffffffffffffffffff1673ffffffffffffffffffffffffffffffffffffffff1681526020018b81526020018a8152602001898152602001888152602001878152602001868152602001858152602001848152602001838152602001821515151581526020019b50505050505050505050505060405180910390f35b341561036657600080fd5b61036e610b7b565b604051808873ffffffffffffffffffffffffffffffffffffffff1673ffffffffffffffffffffffffffffffffffffffff16815260200187815260200186815260200185815260200184815260200183815260200182815260200197505050505050505060405180910390f35b34156103e557600080fd5b6103ed610e38565b6040518082815260200191505060405180910390f35b341561040e57600080fd5b6104246004808035906020019091905050610e41565b60405180848152602001838152602001828152602001935050505060405180910390f35b341561045357600080fd5b61045b610e7a565b6040518082815260200191505060405180910390f35b600080600080915060068054905082101561050b5760068281548110151561049557fe5b90600052602060002090600b020160000160009054906101000a900473ffffffffffffffffffffffffffffffffffffffff1673ffffffffffffffffffffffffffffffffffffffff168773ffffffffffffffffffffffffffffffffffffffff1614156105025781905061050b565b600092506106fd565b8360068281548110151561051b57fe5b90600052602060002090600b020160090154141561061b578560068281548110151561054357fe5b90600052602060002090600b0201600301819055508460068281548110151561056857fe5b90600052602060002090600b020160060181905550600160068281548110151561058e57fe5b90600052602060002090600b0201600a0160006101000a81548160ff0219169083151502179055503373ffffffffffffffffffffffffffffffffffffffff166108fc600160009054906101000a900467ffffffffffffffff1667ffffffffffffffff169081150290604051600060405180830381858888f19350505050151561061657600080fd5b6106b5565b600060068281548110151561062c57fe5b90600052602060002090600b0201600a0160006101000a81548160ff0219169083151502179055508673ffffffffffffffffffffffffffffffffffffffff166108fc600160009054906101000a900467ffffffffffffffff1667ffffffffffffffff169081150290604051600060405180830381858888f1935050505015156106b457600080fd5b5b3373ffffffffffffffffffffffffffffffffffffffff167f25f6f85ad09fbc0d95645779fae8509f8ce29d67febb202251f1360f4a2dfd2160405160405180910390a2600192505b5050949350505050565b600160089054906101000a900473ffffffffffffffffffffffffffffffffffffffff1673ffffffffffffffffffffffffffffffffffffffff163373ffffffffffffffffffffffffffffffffffffffff1614151561076357600080fd5b826003600001819055508160036001018190555080600360020181905550600280548060010182816107959190610f75565b91600052602060002090600302016000600390919091506000820154816000015560018201548160010155600282015481600201555050503373ffffffffffffffffffffffffffffffffffffffff167f041ee76c73ed6ffaffa087cd78838ed843bc95565d1c0c06f9c47e8278251d3660405160405180910390a2505050565b6000600160009054906101000a900467ffffffffffffffff1667ffffffffffffffff163414151561084557600080fd5b85600760000160006101000a81548173ffffffffffffffffffffffffffffffffffffffff021916908373ffffffffffffffffffffffffffffffffffffffff160217905550846007600101819055508360076002018190555082600760040181905550816007600501819055506108b9610e87565b6003600082015181600001556020820151816001015560408201518160020155905050600360000154600780018190555060036001015460076008018190555060036002015460076009018190555060006007600a0160006101000a81548160ff0219169083151502179055506006805480600101828161093a9190610fa7565b91600052602060002090600b02016000600790919091506000820160009054906101000a900473ffffffffffffffffffffffffffffffffffffffff168160000160006101000a81548173ffffffffffffffffffffffffffffffffffffffff021916908373ffffffffffffffffffffffffffffffffffffffff160217905550600182015481600101556002820154816002015560038201548160030155600482015481600401556005820154816005015560068201548160060155600782015481600701556008820154816008015560098201548160090155600a820160009054906101000a900460ff1681600a0160006101000a81548160ff0219169083151502179055505050503373ffffffffffffffffffffffffffffffffffffffff167f639dd5feba8562d7771428ce365f37c1e49193a677125223c9ddb60a44fc8b9260405160405180910390a26001905095945050505050565b600160009054906101000a900467ffffffffffffffff1681565b60005481565b6000600680549050905090565b600160089054906101000a900473ffffffffffffffffffffffffffffffffffffffff1681565b600681815481101515610af457fe5b90600052602060002090600b02016000915090508060000160009054906101000a900473ffffffffffffffffffffffffffffffffffffffff169080600101549080600201549080600301549080600401549080600501549080600601549080600701549080600801549080600901549080600a0160009054906101000a900460ff1690508b565b6000806000806000806000600680549050600242434173ffffffffffffffffffffffffffffffffffffffff1645604051808581526020018481526020018381526020018281526020019450505050506020604051808303816000865af11515610be357600080fd5b5050604051805190506001900467ffffffffffffffff16811515610c0357fe5b066000819055505b6006600054815481101515610c1c57fe5b90600052602060002090600b0201600a0160009054906101000a900460ff1615610cc957600680549050600242434173ffffffffffffffffffffffffffffffffffffffff1645604051808581526020018481526020018381526020018281526020019450505050506020604051808303816000865af11515610c9d57600080fd5b5050604051805190506001900467ffffffffffffffff16811515610cbd57fe5b06600081905550610c0b565b6006600054815481101515610cda57fe5b90600052602060002090600b020160000160009054906101000a900473ffffffffffffffffffffffffffffffffffffffff1696506006600054815481101515610d1f57fe5b90600052602060002090600b02016001015495506006600054815481101515610d4457fe5b90600052602060002090600b02016002015494506006600054815481101515610d6957fe5b90600052602060002090600b02016004015493506006600054815481101515610d8e57fe5b90600052602060002090600b02016005015492506006600054815481101515610db357fe5b90600052602060002090600b02016007015491506006600054815481101515610dd857fe5b90600052602060002090600b02016008015490503373ffffffffffffffffffffffffffffffffffffffff167f4dae2e22e54eeed70657635b7259499cad37343d380ec351e7a2cc7dbee0234260405160405180910390a290919293949596565b60008054905090565b600281815481101515610e5057fe5b90600052602060002090600302016000915090508060000154908060010154908060020154905083565b6000600280549050905090565b610e8f610fd9565b6000600280549050111515610ea357600080fd5b600280549050600242434173ffffffffffffffffffffffffffffffffffffffff1645604051808581526020018481526020018381526020018281526020019450505050506020604051808303816000865af11515610f0057600080fd5b5050604051805190506001900467ffffffffffffffff16811515610f2057fe5b066000819055506002600054815481101515610f3857fe5b9060005260206000209060030201606060405190810160405290816000820154815260200160018201548152602001600282015481525050905090565b815481835581811511610fa257600302816003028360005260206000209182019101610fa19190610ffb565b5b505050565b815481835581811511610fd457600b0281600b028360005260206000209182019101610fd39190611032565b5b505050565b6060604051908101604052806000815260200160008152602001600081525090565b61102f91905b8082111561102b576000808201600090556001820160009055600282016000905550600301611001565b5090565b90565b6110d191905b808211156110cd57600080820160006101000a81549073ffffffffffffffffffffffffffffffffffffffff0219169055600182016000905560028201600090556003820160009055600482016000905560058201600090556006820160009055600782016000905560088201600090556009820160009055600a820160006101000a81549060ff021916905550600b01611038565b5090565b905600a165627a7a723058202239fb6832b770c4d88558d8391dfae4bd6f3eae8ed1a720db365d5d6eb5dd1f0029",
  "source": "pragma solidity ^0.4.17;\n\n/**\n * @title Ethereum-Lottery\n * @dev Simple lottery smart contract to run on the Ethereum\n * chain. Designed to (hopefully) work well with a web3 front-end.\n * Source of randomness comes from ethereum block hashes.\n *\n */\n\ncontract SOBP {\n\n    struct oneBP {\n        uint256 G;\n        uint256 H;\n        uint256 BP;\n    }\n    struct BPTask {\n        address requester;\n        uint256 G1;\n        uint256 H1;\n        uint256 BP1;\n        uint256 G2;\n        uint256 H2;\n        uint256 BP2;\n        uint256 G3;\n        uint256 H3;\n        uint256 BP3;\n        bool state;\n    }\n    uint256 public random;\n    uint64 public taskPrice = 5 finney;\n    address public owner;\n   \n    oneBP [] public ranBP; \n    oneBP temper;\n    BPTask [] public taskTable;\n    BPTask temperTask;\n\n     event _uploadTask(address indexed requester);\n     event _updateRan(address indexed requester);\n     event _executeTask(address indexed requester);\n     event _getTask(address indexed requester);\n\n    function SOBP() public{\n      owner = msg.sender;\n    }\n\n    function() payable public {\n      // for now, have ticket purchasing only through functions\n      // for sanity purposes\n      revert();\n    }\n\n    function updateRan(uint256 G, uint256 H, uint256 BP) public {\n      require(msg.sender == owner);      \n      temper.G = G;\n      temper.H = H;\n      temper.BP = BP;\n      ranBP.push(temper);   \n      _updateRan(msg.sender);  \n    }\n\n    function randomGen() internal returns (oneBP){\n      require(ranBP.length > 0);\n      random = uint64(sha256(block.timestamp, block.number, uint256(block.coinbase), block.gaslimit)) % ranBP.length;\n      return ranBP[random];\n    }\n    \n    function uploadTask(address requester, uint256 G1, uint256 H1, uint256 G2, uint256 H2) payable public returns (bool) {\n      require(msg.value == taskPrice); \n      temperTask.requester = requester;\n      temperTask.G1 = G1;\n      temperTask.H1 = H1;\n      temperTask.G2 = G2;\n      temperTask.H2 = H2;\n      temper = randomGen();\n      temperTask.G3 = temper.G;\n      temperTask.H3 = temper.H;\n      temperTask.BP3 = temper.BP;\n      temperTask.state = false;\n      taskTable.push(temperTask);\n      _uploadTask(msg.sender);\n      return true;\n    }\n\n    function getTask() public view returns(address requester, uint256 G1, uint256 H1, uint256 G2, uint256 H2, uint256 G3, uint256 H3) {\n      \n      random = uint64(sha256(block.timestamp, block.number, uint256(block.coinbase), block.gaslimit)) % taskTable.length;\n      while(taskTable[random].state)\n      {\n        random = uint64(sha256(block.timestamp, block.number, uint256(block.coinbase), block.gaslimit)) % taskTable.length;\n      }\n      requester = taskTable[random].requester;\n      G1 = taskTable[random].G1;\n      H1 = taskTable[random].H1;\n      G2 = taskTable[random].G2;\n      H2 = taskTable[random].H2;\n      G3 = taskTable[random].G3;\n      H3 = taskTable[random].H3;\n      _getTask(msg.sender);\n           \n    }\n\n    function executeTask (address requester, uint256 BP1, uint256 BP2, uint256 BP3) public returns (bool) {\n         uint256 i;\n         uint256 num;\n         for(i = 0; i < taskTable.length; i++)\n         {\n            if(requester == taskTable[i].requester)\n            {\n              num = i;\n              break;\n            }\n            else\n            {\n              return false;\n            }\n         }\n\n         if(taskTable[num].BP3 == BP3)\n         {\n            taskTable[num].BP1 = BP1;\n            taskTable[num].BP2 = BP2;\n            taskTable[num].state = true;\n            msg.sender.transfer(taskPrice);\n         }\n         else\n         {\n            taskTable[num].state = false;\n            requester.transfer(taskPrice);\n         }\n\t _executeTask(msg.sender);\n         return true;        \n         \n       }\n\n\n    function getTaskLength() public view returns (uint256){\n         return taskTable.length;\n    }\n\n    function getRanLength() public view returns (uint256){\n         return ranBP.length;\n    }\n\n    function getRandom() public view returns (uint256){\n         return random;\n    }\n}\n\n",
  "sourcePath": "/home/geth/lceth/truffle_sobp/contracts/SOBP.sol",
  "compiler": {
    "name": "solc",
    "version": "0.4.21+commit.dfe3193c.Emscripten.clang"
  },
  "schemaVersion": "2.0.0",
  "updatedAt": "2018-04-30T04:11:03.877Z"
}